:100000000C94150F0C9400000C9400000C9400004C
:100010000C9400000C9400000C9400000C94000060
:100020000C9400000C9400000C9400000C94000050
:100030000C9400000C9400000C9400000C94000040
:100040000C9400000C9400000C9400000C94000030
:100050000C94A90E0C9400000C9400000C94000069
:100060000C9400000C9400000C9400000C94000010
:0C0070000C94FC1A0C9400000C9400008E
:101E2A00BFEFBDBFB8E0BEBF0E94451CCDB7DEB74D
:101E3A002A97CDBFDEBF21962F923F924F925F9293
:101E4A006F92B0E0BC83BD83B0E0BE83BF83B0E0D5
:101E5A00B8874BD80E942901BCE02B2E0ADCB1E0DE
:101E6A002B2E07DC29E01EE105EE0A95F1F71A95FB
:101E7A00E1F72A95D1F70000D4D9CCD9F0DA29E0D4
:101E8A001EE105EE0A95F1F71A95E1F72A95D1F7C1
:101E9A000000B091C302BD7FB093C302B091C302E8
:101EAA00BE7FB093C302B1E14B2EB1E05B2EB1E02D
:101EBA003B2EB1E02B2E8BDAB0E04B2EB1E05B2E3D
:101ECA00B1E03B2EB2E02B2E82DA29E216E900E8D5
:101EDA000A95F1F71A95E1F72A95D1F7B2E24B2E56
:101EEA00B1E05B2EB1E03B2EB2E02B2E70DA29E294
:101EFA0016E900E80A95F1F71A95E1F72A95D1F75C
:101F0A00B3E34B2EB1E05B2EB1E03B2EB1E02B2EBA
:101F1A005EDAAFDAC1D9009144031091450310305B
:101F2A0009F4003019F4B3E4B09343032091440355
:101F3A003091450300E010E00217130758F40091AE
:101F4A00440310914503103009F4023318F4B2E542
:101F5A00B09343030091440310914503103009F4F0
:101F6A00023318F0B5E4B0934303B4DD49DEB0E0C0
:101F7A00B883B983288139810AE010E02017310734
:101F8A007CF5088119819801220F331F0FE513E0B0
:101F9A00F901E00FF11FBFEFB193B1932BE433E0E6
:101FAA0008811981F801E20FF31FBFEFB08325E51D
:101FBA0033E008811981F801E20FF31FB0E0B08322
:101FCA0029EB32E008811981F801E20FF31FB0E032
:101FDA00B083088119810F5F1F4F08831983CACF05
:101FEA00B9E02B2EB3E03B2EAADBB5EF2B2EB2E0E5
:101FFA003B2E73DCB0E0B883B98328E133E0088173
:10200A001981F801E20FF31F00914303008308814D
:10201A0019810F5F1F4F08831983B0E0BA83BB830E
:10202A002A813B8103E010E02017310784F52A81D9
:10203A003B8100E010E0021713075CF426E433E06A
:10204A000A811B81F801E20FF31F0081003009F4B5
:10205A001EC028E133E008811981A801420F531FED
:10206A0026E433E00A811B81F801E20FF31F0081A5
:10207A00FA010083088119810F5F1F4F08831983B2
:10208A000A811B810F5F1F4F0A831B83C9CF28E177
:10209A0033E008811981F801E20FF31FB0E0B08341
:1020AA00BAE54B2EB1E05B2EB1E03B2EB1E02B2E10
:1020BA008ED929E01EE105EE0A95F1F71A95E1F7A6
:1020CA002A95D1F70000B8E14B2EB3E05B2EB7E0BA
:1020DA003B2EB1E02B2E7BD9B8E12B2EB3E03B2E61
:1020EA00D8DCBDE02B2E0E940D0129E216E900E89A
:1020FA000A95F1F71A95E1F72A95D1F70C94E41AA3
:10210A00B0E0B0934203B1E02B2EB3DA18E605EE45
:10211A000A95F1F71A95E1F7B091C302BD7FB09322
:10212A00C302B091C302BE7FB093C302B091C3028F
:10213A00B4FFA5C0B091C302B77FB093C302B0E0A9
:10214A00B883B983288139810AE010E02017310762
:10215A000CF03CC0088119819801220F331F0FE54A
:10216A0013E0F901E00FF11F219131910091F20280
:10217A001091F3022017310711F52BE433E008819F
:10218A001981F801E20FF31F0091F102008325E59E
:10219A0033E008811981F801E20FF31F0091F4027C
:1021AA00008329EB32E008811981F801E20FF31F5D
:1021BA00B0E0B083B091C302B860B093C3020881A3
:1021CA0019810F5F1F4F08831983BCCFB0E0B88312
:1021DA00B983288139810AE010E0201731070CF011
:1021EA0049C0088119819801220F331F0FE513E0B6
:1021FA00F901E00FF11F019111911F3F09F40F3FFF
:10220A0091F5B091C302B3FD2EC0088119819801DE
:10221A00220F331F0FE513E0F901E00FF11F0091C0
:10222A00F2021091F302019311932BE433E0088137
:10223A001981F801E20FF31F0091F102008325E5ED
:10224A0033E008811981F801E20FF31F0091F402CB
:10225A00008329EB32E008811981F801E20FF31FAC
:10226A00B0E0B08307C0088119810F5F1F4F088350
:10227A001983AFCFB091C302BF7EB093C302B091AE
:10228A00C302B0FF7CC0B6E0B883B0E0B98318815E
:10229A00298100919F031017B0E02B0794F426E7D9
:1022AA0033E008811981F801E20FF31F0081202E23
:1022BA000E940D01088119810F5F1F4F088319833E
:1022CA00E6CFBDE02B2E0E940D01BAE02B2E0E9414
:1022DA000D01B6E0B883B0E0B983B0E0BA83BB833E
:1022EA001881298100919F031017B0E02B07F4F49D
:1022FA0028E133E00A811B81A801420F531F26E718
:10230A0033E008811981F801E20FF31F0081FA0115
:10231A000083088119810F5F1F4F088319830A817F
:10232A001B810F5F1F4F0A831B83DACF28E133E03B
:10233A000A811B81F801E20FF31FB0E0B083B1E01C
:10234A002B2E97D918E605EE0A95F1F71A95E1F7BB
:10235A00B9E44B2EB1E05B2EB1E03B2EB1E02B2E5F
:10236A0036D8B8E14B2EB3E05B2EB1E03B2EB2E09B
:10237A002B2E2DD8B091C302BE7FB093C302B09169
:10238A00C302B1FF52C0B4E42B2EB1E03B2E81DB75
:10239A002090A2030E940D012090A3030E940D0128
:1023AA00BFE32B2EB2E03B2E74DB209075030E9414
:1023BA000D01BBE32B2EB2E03B2E6BDBBEE32B2ED3
:1023CA00B4E03B2E0E9423030E94B70300915F03EF
:1023DA0010916003103009F4023360F4BEE34B2E0F
:1023EA00B4E05B2E20905F03309060030E944B04A0
:1023FA0000933D0400913D04003091F40091610383
:10240A0010916203103009F4023350F4BEE34B2EEC
:10241A00B4E05B2E20906103309062030E944B046B
:10242A00B091C302BD7FB093C3022C813D810AE003
:10243A0010E0021713070CF05EC0B0E0BC83BD8346
:10244A00B0E0B0934403B0934503BEE22B2EB4E050
:10245A003B2E0E944002BEE24B2EB4E05B2EBFEF41
:10246A002B2E3B2E0E944B04B0E0B883B9832881FF
:10247A0039810AE010E0201731070CF03CC029EB43
:10248A0032E008811981200F311FF90100810F5FA5
:10249A00F901008329EB32E008811981F801E20F82
:1024AA00F31F108103E00117F8F4088119819801DC
:1024BA00220F331F0FE513E0F901E00FF11FBFEF01
:1024CA00B193B1932BE433E008811981F801E20F4B
:1024DA00F31FBFEFB08325E533E008811981F801C6
:1024EA00E20FF31FB0E0B083088119810F5F1F4F1D
:1024FA0008831983BCCF0091840009870091850065
:10250A000987198504E6011760F4B0E0B0938500E5
:10251A00B0E0B09384000C811D810F5F1F4F0C83C4
:10252A001D831091420304E6011720F4B0E0B09332
:10253A00420387CCFBCDB091C302BE7FB093C302E6
:10254A00B0E0B0934203B091C302B4FFA5C0B0910A
:10255A00C302B77FB093C302B0E0B883B9832881BE
:10256A0039810AE010E0201731070CF03CC00881DD
:10257A0019819801220F331F0FE513E0F901E00FCB
:10258A00F11F219131910091F2021091F30220176B
:10259A00310711F52BE433E008811981F801E20FC4
:1025AA00F31F0091F102008325E533E008811981C8
:1025BA00F801E20FF31F0091F402008329EB32E0E5
:1025CA0008811981F801E20FF31FB0E0B083B091DE
:1025DA00C302B860B093C302088119810F5F1F4F0D
:1025EA0008831983BCCFB0E0B883B98328813981C5
:1025FA000AE010E0201731070CF049C00881198160
:10260A009801220F331F0FE513E0F901E00FF11FC4
:10261A00019111911F3F09F40F3F91F5B091C30247
:10262A00B3FD2EC0088119819801220F331F0FE5CF
:10263A0013E0F901E00FF11F0091F2021091F30289
:10264A00019311932BE433E008811981F801E20F19
:10265A00F31F0091F102008325E533E00881198117
:10266A00F801E20FF31F0091F402008329EB32E034
:10267A0008811981F801E20FF31FB0E0B08307C0A7
:10268A00088119810F5F1F4F08831983AFCFB0915B
:10269A00C302BF7EB093C302B091C302B0FFB8C0F9
:1026AA000E945109B6E0B883B0E0B983B0E0BA83BA
:1026BA00BB831881298100919F031017B0E02B0773
:1026CA00F4F428E133E00A811B81A801420F531F69
:1026DA0026E733E008811981F801E20FF31F008130
:1026EA00FA010083088119810F5F1F4F088319833C
:1026FA000A811B810F5F1F4F0A831B83DACF28E1F0
:10270A0033E00A811B81F801E20FF31FB0E0B083C6
:10271A00B1E02B2E0E943E0B18E605EE0A95F1F762
:10272A001A95E1F7B8E04B2EB2E05B2EB1E03B2EF2
:10273A00B1E02B2E0E94EC09B8E14B2EB3E05B2EE0
:10274A00B1E03B2EB2E02B2E0E94EC0900917803F7
:10275A00502F442700917903202F30E0240F351F92
:10276A0000914403109145032017310709F44BC027
:10277A00B0E12B2EB4E03B2E0E949F0700917D030F
:10278A00013479F40E94B703B0E14B2EB4E05B2E1A
:10279A0020907903B0E03B2E0E944B0400933D0445
:1027AA0032C00E94B70320915F0330916003009109
:1027BA004403109145032017310760F4B0E14B2E12
:1027CA00B4E05B2E20905F03309060030E944B04BC
:1027DA0000933D0400913D040030A9F42091610367
:1027EA003091620300914403109145032017310789
:1027FA0050F4B0E14B2EB4E05B2E20906103309090
:10280A0062030E944B04B091C302BE7FB093C3021D
:10281A002C813D810AE010E0021713070CF0FDC07D
:10282A000E945109B0E0BC83BD83B9E02B2EB3E00E
:10283A003B2E0E94A40BB6E0B883B0E0B983B0E0A7
:10284A00BA83BB8329E033E008811981F801E20FDA
:10285A00F31F0081033209F41EC028E133E00A8124
:10286A001B81A801420F531F29E033E00881198117
:10287A00F801E20FF31F0081FA0100830881198130
:10288A000F5F1F4F088319830A811B810F5F1F4F38
:10289A000A831B83D7CF28E133E00A811B81F80121
:1028AA00E20FF31FB0E0B083B1E02B2E0E943E0B83
:1028BA0018E605EE0A95F1F71A95E1F7BAE24B2EFA
:1028CA00B2E05B2EB1E03B2EB1E02B2E0E94EC0968
:1028DA00B8E14B2EB3E05B2EB5E03B2EB2E02B2ED7
:1028EA000E94EC09B9E04B2EB3E05B2E222433247C
:1028FA000E944B0400933D040030A1F4009144036C
:10290A0010914503103009F4023061F4B9E04B2EFE
:10291A00B3E05B2EB1E02B2EB0E03B2E0E944B04BD
:10292A0000933D0400913D04013051F4B9E14B2E6E
:10293A00B2E05B2EB1E03B2EB1E02B2E0E94EC09F7
:10294A0000913D04003051F4B8EA4B2EB2E05B2E00
:10295A00B1E03B2EB1E02B2E0E94EC0925E01FE0EE
:10296A0002EF0A95F1F71A95E1F72A95D1F7BEE237
:10297A002B2EB4E03B2E0E944002BEE24B2EB4E066
:10298A005B2EBFEF2B2E3B2E0E944B04B0E0B88388
:10299A00B983288139810AE010E0201731070CF049
:1029AA003CC029EB32E008811981200F311FF9015F
:1029BA0000810F5FF901008329EB32E00881198158
:1029CA00F801E20FF31F108103E00117F8F4088100
:1029DA0019819801220F331F0FE513E0F901E00F67
:1029EA00F11FBFEFB193B1932BE433E00881198152
:1029FA00F801E20FF31FBFEFB08325E533E008814A
:102A0A001981F801E20FF31FB0E0B0830881198140
:102A1A000F5F1F4F08831983BCCF00918400098779
:102A2A00009185000987198504E6011760F4B0E072
:102A3A00B0938500B0E0B09384000C811D810F5FD4
:102A4A001F4F0C831D831091420304E6011720F4E3
:102A5A00B0E0B0934203F5C976CDB0E0B09342033B
:102A6A00B1E02B2E0E943E0B18E605EE0A95F1F70F
:102A7A001A95E1F7B091C302B4FFA5C0B091C302A1
:102A8A00B77FB093C302B0E0B883B9832881398194
:102A9A000AE010E0201731070CF03CC008811981C8
:102AAA009801220F331F0FE513E0F901E00FF11F20
:102ABA00219131910091F2021091F302201731070E
:102ACA0011F52BE433E008811981F801E20FF31FB5
:102ADA000091F102008325E533E008811981F801AC
:102AEA00E20FF31F0091F402008329EB32E0088120
:102AFA001981F801E20FF31FB0E0B083B091C3026D
:102B0A00B860B093C302088119810F5F1F4F088311
:102B1A001983BCCFB0E0B883B983288139810AE030
:102B2A0010E0201731070CF049C00881198198017B
:102B3A00220F331F0FE513E0F901E00FF11F019196
:102B4A0011911F3F09F40F3F91F5B091C302B3FDF4
:102B5A002EC0088119819801220F331F0FE513E057
:102B6A00F901E00FF11F0091F2021091F3020193B3
:102B7A0011932BE433E008811981F801E20FF31F66
:102B8A000091F102008325E533E008811981F801FB
:102B9A00E20FF31F0091F402008329EB32E008816F
:102BAA001981F801E20FF31FB0E0B08307C0088172
:102BBA0019810F5F1F4F08831983AFCFB091C302EA
:102BCA00BF7EB093C302B091C302B0FF34C10E946A
:102BDA00510900917803502F442700917903202F3F
:102BEA0030E0240F351F009144031091450320174C
:102BFA00310709F01BC1009181030093740317C0C8
:102C0A00B5B1B160B5B924C0B5B1BE7FB5B920C000
:102C1A00B8B1B860B8B9B5B1B260B5B919C0B8B190
:102C2A00B77FB8B9B5B1BD7FB5B912C011C00091AF
:102C3A007403013329F300917403023329F30091D9
:102C4A007403033329F300917403043341F3EECF81
:102C5A00B6E0B883B0E0B983B0E0BA83BB83188129
:102C6A00298100919F031017B0E02B07F4F428E1A3
:102C7A0033E00A811B81A801420F531F26E733E084
:102C8A0008811981F801E20FF31F0081FA0100831C
:102C9A00088119810F5F1F4F088319830A811B81DD
:102CAA000F5F1F4F0A831B83DACF28E133E00A81C3
:102CBA001B81F801E20FF31FB0E0B083B1E02B2EC5
:102CCA000E943E0B18E605EE0A95F1F71A95E1F710
:102CDA00B7E94B2EB2E05B2EB1E03B2EB1E02B2ED2
:102CEA000E94EC09B8E14B2EB3E05B2EB1E03B2E1B
:102CFA00B2E02B2E0E94EC09B4E52B2EB4E03B2E59
:102D0A000E9432080E94EF06B0E0B883B983288196
:102D1A0039810AE010E0201731070CF087C00881DA
:102D2A0019819801220F331F0FE513E0F901E00F13
:102D3A00F11F2191319100E010E00217130708F00A
:102D4A006EC0088119819801220F331F0FE513E025
:102D5A00F901E00FF11F01911191103009F40233CA
:102D6A0008F05DC0088119819801220F331F0FE511
:102D7A0013E0F901E00FF11F01911191B4E54B2E17
:102D8A00B4E05B2E18010E944B0400933D0400300E
:102D9A0049F5088119810F5F1F4F9801220F331FD0
:102DAA000FE513E0F901E00FF11F019111911030C5
:102DBA0009F40030B9F0088119810F5F1F4F98019B
:102DCA00220F331F0FE513E0F901E00FF11F019104
:102DDA001191B4E54B2EB4E05B2E18010E944B040E
:102DEA0000933D0400913D04013051F4B2E44B2EAE
:102DFA00B2E05B2EB1E03B2EB1E02B2E0E94EC0933
:102E0A0000913D04003051F4B4E64B2EB2E05B2E43
:102E1A00B1E03B2EB1E02B2E0E94EC0907C00881DD
:102E2A0019810F5F1F4F0883198371CFB091C302B5
:102E3A00BE7FB093C302B6B1B1FDF8C00E9451097A
:102E4A002DE01DE208ED0A95F1F71A95E1F72A95AA
:102E5A00D1F700000000B6E0B883B0E0B983B0E073
:102E6A00BA83BB8325EF32E008811981F801E20FAA
:102E7A00F31F0081033209F41EC028E133E00A81FE
:102E8A001B81A801420F531F25EF32E008811981E7
:102E9A00F801E20FF31F0081FA010083088119810A
:102EAA000F5F1F4F088319830A811B810F5F1F4F12
:102EBA000A831B83D7CFB1E02B2E0E943E0B18E664
:102ECA0005EE0A95F1F71A95E1F728E133E00A8150
:102EDA001B81F801E20FF31FB0E0B083B5E74B2E78
:102EEA00B2E05B2EB1E03B2EB1E02B2E0E94EC0942
:102EFA00B8E14B2EB3E05B2EB1E03B2EB2E02B2EB5
:102F0A000E94EC090E94EF06B0E0B883B9832881D9
:102F1A0039810AE010E0201731070CF087C00881D8
:102F2A0019819801220F331F0FE513E0F901E00F11
:102F3A00F11F2191319100E010E00217130708F008
:102F4A006EC0088119819801220F331F0FE513E023
:102F5A00F901E00FF11F01911191103009F40233C8
:102F6A0008F05DC0088119819801220F331F0FE50F
:102F7A0013E0F901E00FF11F01911191B5EF4B2E0A
:102F8A00B2E05B2E18010E944B0400933D0400300E
:102F9A0049F5088119810F5F1F4F9801220F331FCE
:102FAA000FE513E0F901E00FF11F019111911030C3
:102FBA0009F40030B9F0088119810F5F1F4F980199
:102FCA00220F331F0FE513E0F901E00FF11F019102
:102FDA001191B5EF4B2EB2E05B2E18010E944B0403
:102FEA0000933D0400913D04013051F4B6E84B2EA4
:102FFA00B2E05B2EB1E03B2EB1E02B2E0E94EC0931
:10300A0000913D04003051F4B3E54B2EB2E05B2E43
:10301A00B1E03B2EB1E02B2E0E94EC0907C00881DB
:10302A0019810F5F1F4F0883198371CF2E813F814A
:10303A0005E010E0021713070CF03CC10E94510989
:10304A00B0E0BE83BF830885003019F0B0E0B887CE
:10305A0002C0B1E0B887B0E0B0935204B093530411
:10306A00B0E0B883B9832881398108E010E02017DD
:10307A003107A4F428840E94C80020915204309198
:10308A005304020F131F0093520410935304088130
:10309A0019810F5F1F4F08831983E5CF00915204EE
:1030AA001091530416950795169507951695079549
:1030BA000093D2031093D303169507951695079597
:1030CA00169507950093D2031093D303502E612EC1
:1030DA004884BEEB2B2EB3E03B2E0E942B05B6E0B4
:1030EA00B883B0E0B983B0E0BA83BB832EEB33E098
:1030FA0008811981F801E20FF31F0081033209F4F4
:10310A001EC028E133E00A811B81A801420F531F28
:10311A002EEB33E008811981F801E20FF31F0081D9
:10312A00FA010083088119810F5F1F4F08831983F1
:10313A000A811B810F5F1F4F0A831B83D7CFB1E020
:10314A002B2E0E943E0B18E605EE0A95F1F71A950A
:10315A00E1F728E133E00A811B81F801E20FF31F4E
:10316A00B0E0B083B6EE4B2EB1E05B2EB1E03B2E61
:10317A00B1E02B2E0E94EC09B8E14B2EB3E05B2E96
:10318A00B1E03B2EB2E02B2E0E94EC090E94EF0622
:10319A00B0E0B883B983288139810AE010E02017AA
:1031AA0031070CF087C0088119819801220F331F5B
:1031BA000FE513E0F901E00FF11F2191319100E0D1
:1031CA0010E00217130708F06EC0088119819801F0
:1031DA00220F331F0FE513E0F901E00FF11F0191F0
:1031EA001191103009F4023308F05DC00881198189
:1031FA009801220F331F0FE513E0F901E00FF11FC9
:10320A0001911191BEEB4B2EB3E05B2E18010E9487
:10321A004B0400933D04003049F5088119810F5F82
:10322A001F4F9801220F331F0FE513E0F901E00F3A
:10323A00F11F01911191103009F40030B9F00881A1
:10324A0019810F5F1F4F9801220F331F0FE513E0FB
:10325A00F901E00FF11F01911191BEEB4B2EB3E082
:10326A005B2E18010E944B0400933D0400913D041B
:10327A00013051F4B5ED4B2EB1E05B2EB1E03B2E9F
:10328A00B1E02B2E0E94EC0900913D04003051F46C
:10329A00B4EC4B2EB1E05B2EB1E03B2EB1E02B2E0D
:1032AA000E94EC0907C0088119810F5F1F4F08832C
:1032BA00198371CF2C813D810AE010E002171307B0
:1032CA000CF055C10E945109B0E0BC83BD83B9E03E
:1032DA002B2EB3E03B2E0E94A40BB6E0B883B0E0DD
:1032EA00B983B0E0BA83BB8329E033E0088119814E
:1032FA00F801E20FF31F0081033209F41EC028E12E
:10330A0033E00A811B81A801420F531F29E033E0F1
:10331A0008811981F801E20FF31F0081FA01008385
:10332A00088119810F5F1F4F088319830A811B8146
:10333A000F5F1F4F0A831B83D7CFB1E02B2E0E944A
:10334A003E0B18E605EE0A95F1F71A95E1F728E122
:10335A0033E00A811B81F801E20FF31FB0E0B0836A
:10336A00B1E94B2EB1E05B2EB1E03B2EB1E02B2E42
:10337A000E94EC09B8E14B2EB3E05B2EB5E03B2E80
:10338A00B2E02B2E0E94EC090E94EF06B0E0B8834F
:10339A00B983288139810AE010E0201731070CF03F
:1033AA0087C0088119819801220F331F0FE513E0A6
:1033BA00F901E00FF11F2191319100E010E00217AD
:1033CA00130708F06EC0088119819801220F331F74
:1033DA000FE513E0F901E00FF11F0191119110308F
:1033EA0009F4023308F05DC0088119819801220F9F
:1033FA00331F0FE513E0F901E00FF11F019111915D
:10340A00B9E04B2EB3E05B2E18010E944B040093E7
:10341A003D04003049F5088119810F5F1F4F98015B
:10342A00220F331F0FE513E0F901E00FF11F01919D
:10343A001191103009F40030B9F0088119810F5F39
:10344A001F4F9801220F331F0FE513E0F901E00F18
:10345A00F11F01911191B9E04B2EB3E05B2E1801D7
:10346A000E944B0400933D0400913D04013051F445
:10347A00B0E84B2EB1E05B2EB1E03B2EB1E02B2E33
:10348A000E94EC0900913D04003051F4B3EB4B2E3D
:10349A00B1E05B2EB1E03B2EB1E02B2E0E94EC098D
:1034AA0007C0088119810F5F1F4F0883198371CFE5
:1034BA0025E01FE002EF0A95F1F71A95E1F72A9540
:1034CA00D1F7BEE22B2EB4E03B2E0E944002BEE2B0
:1034DA004B2EB4E05B2EBFEF2B2E3B2E0E944B04EB
:1034EA00B0E0B883B983288139810AE010E0201757
:1034FA0031070CF03CC029EB32E008811981200F1A
:10350A00311FF90100810F5FF901008329EB32E0D5
:10351A0008811981F801E20FF31F108103E00117F6
:10352A00F8F4088119819801220F331F0FE513E07F
:10353A00F901E00FF11FBFEFB193B1932BE433E030
:10354A0008811981F801E20FF31FBFEFB08325E567
:10355A0033E008811981F801E20FF31FB0E0B0836C
:10356A00088119810F5F1F4F08831983BCCF00910F
:10357A0084000987009185000987198504E60117E7
:10358A0090F4B0E0B0938500B0E0B09384000C8171
:10359A001D810F5F1F4F0C831D830E811F810F5FDB
:1035AA001F4F0E831F831091420304E6011728F46C
:1035BA00B0E0B09342030C94260F5CCA12C000918B
:1035CA004303033411F40C9485100091430302352C
:1035DA0011F40C94A01200914303053409F43DCA76
:0E35EA00EDCF6F905F904F903F902F90FFCFEE
:100EF400B7B1B061B7B9B7B1B062B7B9B4B1B160A5
:100F0400B4B9B7B1B860B7B9B4B1B260B4B9B7B134
:100F1400BD7FB7B9B7B1BE7FB7B9B8B1B260B8B920
:100F2400B8B1B160B8B9B8B1BF7EB8B9B8B1BF7D16
:0A0F3400B8B9B8B1B77FB8B9089595
:10025200B0912500B77FB0932500B0912500BB7FF8
:10026200B0932500B0912B00BF77B0932B00B091D3
:100272002B00BF7BB0932B00B0912B00BF7DB093BE
:100282002B00B0912B00BF7EB0932B00B0912400C5
:10029200B860B0932400B0912400B460B0932400FD
:1002A200B0912A00B061B0932A00B0912A00B062E6
:1002B200B0932A00B0912A00B064B0932A00B091A2
:1002C2002A00B068B0932A00BADFB9DFB8DFB09174
:1002D2002B00B062B0932B00B0912B00B061B093B1
:1002E2002B00B0912500B860B0932500A2DFB09139
:1002F2002500B77FB0932500A2DFB0912500B8603A
:10030200B093250096DFB0912500B77FB09325000A
:1003120096DFB0912500B860B09325008ADFB091D6
:100322002500B77FB09325008ADFB0912B00BF7EF6
:10033200B0932B00B0912500B860B093250079DF0F
:10034200B0912500B77FB093250079DFB0912500E9
:10035200B860B09325006DDFB0912500B77FB093F0
:100362002500B0912B00BF7DB0932B00B0912B00E4
:10037200B068B0932B00B0912500B860B09325000F
:1003820058DFB0912500B77FB093250058DFB091B8
:100392002B00BF77B0932B00B0912B00B061B093CC
:1003A2002B00B0912500B860B093250042DFB091D8
:1003B2002500B77FB0932500B0912B00BF7EB0938C
:1003C2002B00B0912500B860B093250032DFB091C8
:1003D2002500B77FB093250032DFB0912500B860C9
:1003E200B093250026DFB0912500B77FB09325009A
:1003F200B0912B00B061B0932B00B0912500B86092
:10040200B093250016DFB0912500B77FB093250089
:1004120016DFB0912B00BF7EB0932B00B091250068
:10042200B860B093250005DFB0912500B77FB09387
:100432002500B0912B00B068B0932B00B0912B0037
:10044200B064B0932B00B0912B00B062B0932B003C
:10045200B0912B00B061B0932B00B0912500B86031
:10046200B0932500E6DEB0912500B77FB09325005A
:0E047200E6DEB091C302B064B093C3020895F9
:100240001AE303E20A95F1F71A95E1F700000000BE
:0202500008950F
:0C02340002E00A95F1F7000000000895B8
:10167C0027FAB0912B00B7F9B0932B0026FAB09152
:10168C002B00B6F9B0932B0025FAB0912B00B5F9CD
:10169C00B0932B0024FAB0912B00B4F9B0932B002B
:1016AC00B091C30200902500E894B6FF689402F84C
:1016BC0000922500B0912500B860B09325000E94DF
:1016CC001A01B0912500B77FB093250023FAB09191
:1016DC002B00B7F9B0932B0022FAB0912B00B6F97E
:1016EC00B0932B0021FAB0912B00B5F9B0932B00DD
:1016FC0020FAB0912B00B4F9B0932B00B091C30237
:10170C0000902500E894B6FF689402F8009225003A
:10171C00B0912500B860B09325000E941A01B091D9
:10172C002500B77FB0932500B091C302B6FF03C06C
:0C173C000E94200102C00E9415010895C7
:0A022A0005E80A95F1F700000895B9
:10122C00BFB7BF77BFBFB0E0B093CD00B3E3B0930F
:10123C00CC00B091C900B068B093C900B091C8009F
:10124C00B068B093C800B091C900B061B093C90048
:10125C00B091C900B860B093C900B0E0B093C500BC
:10126C00B3E3B093C400B091C100B068B093C100B7
:10127C00B091C000B068B093C000B091C100B06133
:10128C00B093C100B091C100B860B093C100BFB7BA
:06129C00B068BFBF089519
:0E121E00B0ECB0937C00B7E8B0937A0008956E
:10146800B4E0B0938100B0E0B0938500B0E0B093F1
:04147800840008954F
:1013D8002F920FC0B0E82B2E19C0B0EC2B2E16C0E0
:1013E800B4E92B2E13C0B4ED2B2E10C0B0E82B2E71
:1013F8000DC0B1E02B1671F3B2E02B1671F3B3E018
:101408002B1671F3B4E02B1671F3F0CF032D0150B6
:10141800020D202E202E2ED1B091C302BF7BB09397
:10142800C30210E0E12FF0E0E40DF51D0081002378
:1014380081F0E12FF0E0E40DF51D00811F932F925C
:10144800202E0E9478002F901F91012F0F5F102FE0
:10145800E9CFB091C302B064B093C3022F9008954E
:0014680084
:1000F000B091C302BF7BB093C3020E943E0BB0918C
:0A010000C302B064B093C302089577
:10147C00CF93DF93CDB7DEB72197CDBFDEBF2196DB
:10148C002F923F924F925F92B6B1B1FDE8C0B6B1C8
:10149C00B0FDE5C0B1E02B2EEBD018E605EE0A95B9
:1014AC00F1F71A95E1F7B2EA4B2EB1E05B2EB1E001
:1014BC003B2EB1E02B2E8ADF25E11BE40FEB0A95C6
:1014CC00F1F71A95E1F72A95D1F70000B6B1B1FD05
:1014DC0004C0B6B1B0FD01C0F9CF25E01FE002EFAA
:1014EC000A95F1F71A95E1F72A95D1F7B0E0B09388
:1014FC004403B0934503B0E0B0930F040091440350
:10150C000883B0E0B0930304009144034AE00E94C6
:10151C004600092F005D0093020408814AE00E94F6
:10152C00460008834AE00E944600092F005D0093A4
:10153C00010408814AE00E944600005D009300040B
:10154C00B0E04B2EB4E05B2EB7E03B2EB2E02B2E7E
:10155C003DDFB0E0B0930F04B6B1B0FD1CC029E084
:10156C001EE105EE0A95F1F71A95E1F72A95D1F7E8
:10157C0000000091440310914503103009F4043627
:10158C0050F400914403109145030F5F1F4F0093DB
:10159C00440310934503B6B1B1FD1CC029E01EE114
:1015AC0005EE0A95F1F71A95E1F72A95D1F70000A7
:1015BC000091440310914503103009F4003051F0B0
:1015CC0000914403109145030150104000934403D3
:1015DC0010934503B6B1B1FD41C0B6B1B0FD3EC0EC
:1015EC00009100040053402EB1E02B2EB0E03B2EB6
:1015FC000E948500009101040053402EB2E02B2E76
:10160C00B0E03B2E0E948500009102040053402E56
:10161C00B3E02B2EB0E03B2E0E948500B7EF4B2E93
:10162C00B1E05B2EB1E03B2EB2E02B2ECFDE22E5FB
:10163C001BE200E00A95F1F71A95E1F72A95D1F72C
:10164C000000000000000000B1E02B2E11D018E6C5
:10165C0005EE0A95F1F71A95E1F701C04FCF5F90AF
:10166C004F903F902F90CDBFDEBFDF91CF9108956B
:00167C006E
:10010A00CF93DF93CDB7DEB72297CDBFDEBF21965F
:10011A00288239820FB6BFB3B1FF01C0FCCFF89471
:10012A00BFB3BF7EBFBBBFB3BF7DBFBB1C2F2D2FCD
:10013A00E12FF22F3196008102BDE12FF22F0081CB
:10014A0001BD40BCBFB3B460BFBBBFB3B260BFBBED
:0E015A000FBE2196CDBFDEBFDF91CF9108957D
:10008C00992779E004C0991F941708F0941B001F5E
:08009C007A95C9F7009508955B
:1012A200CF93DF93CDB7DEB72297CDBFDEBF2196B6
:1012B2002F923F92B1E02B2EB0E03B2E0E945200C3
:1012C20014E6019F800108831983B2E02B2EB0E05F
:1012D2003B2E0E9452001AE0019F90010881198161
:1012E200020F131F08831983B3E02B2EB0E03B2EAD
:1012F2000E9452002881398110E0020F131F0093CF
:10130200440310934503BFB7B068BFBF9801B0E074
:10131200B0934603B0E0B0934703B0E0B093480304
:10132200103009F40A3020F4022F005D00934603C6
:101332000091440310914503103009F40A30D0F0B3
:101342000091440310914503103009F4043690F4DF
:1013520089014AE050E00E94B4008C01005D0093D4
:10136200460389014AE050E00E94B4008D01005D0D
:10137200009347030091440310914503103009F490
:10138200043608F1890144E650E00E94B4008C0161
:10139200005D00934603890144E650E00E94B400D8
:1013A2008D0198014AE050E00E94B4008C01005D7A
:1013B2000093470389014AE050E00E94B4008D0186
:1013C200005D009348033F902F902196CDBFDEBF72
:0613D200DF91CF910895A8
:1000A400CF93DF93CDB7DEB72297CDBFDEBF2196C6
:1000B400288239820FB6BFB3B1FF01C0FCCFF894D8
:1000C4001C2F2D2FE12FF22F3196008102BDE12F3D
:1000D400F22F008101BDBFB3B160BFBB0FBE00B53D
:0C00E4002196CDBFDEBFDF91CF910895C3
:10016800C801BA01AA1BBB1B51E107C0AA1FBB1FCC
:10017800A617B70710F0A61BB70B881F991F5A952B
:08018800A9F7809590950895F8
:101ADE002F923F92B7B1BF77B7B9B8B1B068B8B966
:101AEE00B7B1B460B7B9B8B1B460B8B925E11BE409
:101AFE000FEB0A95F1F71A95E1F72A95D1F7000049
:101B0E002DE311EE00E40A95F1F71A95E1F72A9507
:101B1E00D1F700000000BCE72B2EB1E03B2E0E9457
:101B2E00F5002DE311EE00E40A95F1F71A95E1F7B1
:101B3E002A95D1F700000000B4E72B2EB1E03B2E22
:101B4E000E94F50025E01FE002EF0A95F1F71A95C5
:101B5E00E1F72A95D1F7BEE62B2EB1E03B2E0E947F
:101B6E00F50025E01FE002EF0A95F1F71A95E1F76F
:101B7E002A95D1F7B8E62B2EB1E03B2E0E94F50048
:101B8E0025E01FE002EF0A95F1F71A95E1F72A9585
:081B9E00D1F73F902F9008954C
:1001EA0010E0E12FF0E0E20DF31D0081003079F01C
:1001FA00E12FF0E0E20DF31D00813F922F92202EB5
:10020A0038DF2F903F90012F0F5F102FEACF08950C
:00021A00E4
:10007C000091C80005FD01C0FBCF2092CE00089571
:00008C0074
:101C0A002F92BEE7B0933603B0E0B0933703B6E045
:101C1A00B0933803B8E0B0933903BDE4B0933A0304
:101C2A00BDE4B0933B03B9E5B0933C030091440390
:101C3A0010914503012F10E000933D0300914403E6
:101C4A0000933E0330E040E023E008E0021780F012
:101C5A0006E313E0E22FF0E0E00FF11F008110E04D
:101C6A00030F141F302F412F022F0F5F202FEDCFAC
:101C7A000FEF10E0031BB0E01B0B00933F03B09182
:101C8A00C302BF7DB093C30220E02A3070F406E39A
:101C9A0013E0E22FF0E0E00FF11F0081202E0E94F6
:101CAA003E00022F0F5F202FF0CF23E018E008E755
:101CBA000A95F1F71A95E1F72A95D1F7B091C3027F
:101CCA00B5FD05C0009142030F5F00934203BEE7D2
:101CDA00B0933603B0E0B0933703B4E0B09338035F
:101CEA00B8E0B0933903BDE4B0933A03B7E5B093D3
:101CFA003B03B2E5B0933C03B1E0B0933D0320E06F
:101D0A00283070F406E313E0E22FF0E0E00FF11F51
:101D1A000081202E0E943E00022F0F5F202FF0CF5D
:101D2A0023E018E008E70A95F1F71A95E1F72A95F2
:101D3A00D1F7B091C302B5FD05C0009142030F5F10
:081D4A00009342032F9008955D
:10174800CF93DF93CDB7DEB72297CDBFDEBF21960B
:10175800B0E0B88308810F3058F40881E02FF0E03A
:10176800E20DF31DB0E0B08308810F5F0883F2CF6C
:10177800B0E0B8830091440310914503012F10E0B5
:10178800F101008308810F5F0883E02FF0E0E20D8C
:10179800F31D00914403008308810F5F0883E02F45
:1017A800F0E0E20DF31DB0E0B08308810F5F08831D
:1017B800E02FF0E0E20DF31DB0E0B08308810F5F89
:1017C800088300914303023541F40881E02FF0E0DB
:1017D800E20DF31DB1E0B08307C00881E02FF0E00F
:1017E800E20DF31DB0E0B08308810F5F0883E02F9E
:1017F800F0E0E20DF31DB0E0B08308810F5F0883CD
:10180800E02FF0E0E20DF31DBAE2B08308810F5F2C
:101818000883E02FF0E0E20DF31DBAE2B0830881FF
:101828000F5F0883E02FF0E0E20DF31DB4E5B0830D
:1018380008810F5F0883E02FF0E0E20DF31D0091AF
:101848004303008308810F5F0883B0E0B9830981EF
:10185800033030F5198100E0011758F416E423E04D
:101868000981E02FF0E0E10FF21F0081003009F458
:1018780017C00881302F40E0320D431D16E423E0E5
:101888000981E02FF0E0E10FF21F0081E32FF42F30
:10189800008308810F5F088309810F5F0983D7CF11
:1018A8000881E02FF0E0E20DF31DBAE2B083088171
:1018B8000F5F0883E02FF0E0E20DF31DBAE2B0837A
:1018C80008810F5FE02FF0E0E20DF31DB3E2B08373
:0C18D8002196CDBFDEBFDF91CF910895B7
:1018E400CF93DF93CDB7DEB72297CDBFDEBF21966E
:1018F400B0E0B8830881043158F40881E02FF0E0A7
:10190400E20DF31DB0E0B08308810F5F0883F2CFCE
:10191400B0E0B8830091440310914503012F10E017
:10192400F101008308810F5F0883E02FF0E0E20DEE
:10193400F31D00914403008308810F5F0883E02FA7
:10194400F0E0E20DF31DB0E0B08308810F5F08837F
:10195400E02FF0E0E20DF31DB0E0B08308810F5FEB
:101964000883E02FF0E0E20DF31DB1E0B0830881BD
:101974000F5F0883E02FF0E0E20DF31DB0E0B083C9
:1019840008810F5F0883E02FF0E0E20DF31DBAE257
:10199400B08308810F5F0883E02FF0E0E20DF31DB0
:1019A400BAE2B08308810F5F0883E02FF0E0E20D14
:1019B400F31DBDE4B08308810F5F0883E02FF0E0DE
:1019C400E20DF31D00914303008308810F5F088338
:1019D400B0E0B9830981033030F5198100E00117C3
:1019E40058F416E423E00981E02FF0E0E10FF21F40
:1019F4000081003009F417C00881302F40E0320D17
:101A0400431D16E423E00981E02FF0E0E10FF21F0B
:101A14000081E32FF42F008308810F5F088309817D
:101A24000F5F0983D7CF0881E02FF0E0E20DF31DAB
:101A3400BAE2B08308810F5F0883E02FF0E0E20D83
:101A4400F31DBAE2B08308810F5F0883E02FF0E052
:101A5400E20DF31DB1E3B08308810F5F0883E02F2B
:101A6400F0E0E20DF31DBAE2B08308810F5F088352
:101A7400E02FF0E0E20DF31DBAE2B08308810F5FBE
:101A8400E02FF0E0E20DF31DB3E2B0832196CDBF69
:081A9400DEBFDF91CF91089540
:101A9C0010E0E12FF0E0E20DF31D00810030C1F009
:101AAC00E12FF0E0E20DF31D00813F922F92202EEA
:101ABC000E940D012F903F90012F0F5F102F1F934D
:101ACC001BE003E60A95F1F71A95E1F71F91E1CFB8
:021ADC0008956B
:10021A000091C00005FD01C0FBCF2092C6000895E1
:00022A00D4
:1006460010E01F3050F4E12FF0E0E20DF31DB0E0B2
:10065600B083012F0F5F102FF4CF20E000914403E9
:1006660010914503012F10E0F1010083022F0F5F67
:10067600102FE02FF0E0E20DF31D009144030083FC
:10068600012F0F5F202FE02FF0E0E20DF31D009108
:10069600400310914103012F10E00083022F0F5FEA
:1006A600102FE02FF0E0E20DF31D009140030083D0
:1006B600012F0F5F102FE02FF0E0E20DF31DB1E0E8
:1006C600B083012F0F5F102FE02FF0E0E20DF31D36
:1006D600B0E0B083012F0F5F102FE02FF0E0E20DA6
:1006E600F31DBAE2B083012F0F5F102FE02FF0E069
:1006F600E20DF31DB1E4B083012F0F5F102FE02F41
:10070600F0E0E20DF31DBAE2B083012F0F5F102F68
:10071600E02FF0E0E20DF31D009175030083012F39
:100726000F5F102FE02FF0E0E20DF31DBAE2B08369
:10073600012F0F5F102FE02FF0E0E20DF31D009167
:1007460074030083012F0F5F102FE02FF0E0E20DFE
:10075600F31DBAE2B083012F0F5FE02FF0E0E20D48
:08076600F31DB3E2B083089516
:10076E00CF93DF93CDB7DEB72197CDBFDEBF2196F6
:10077E0070E07A3008F083C0072F0F5F602F6A3069
:10078E0008F079C0272F30E0220F331F0FE513E05A
:10079E00F901E00FF11F41915191262F30E0220F08
:1007AE00331F0FE513E0F901E00FF11F01911191D5
:1007BE000417150708F05BC0262F30E0220F331FF9
:1007CE000FE513E0A901400F511FFA0100810883C4
:1007DE00272F30E0220F331F0FE513E0F901E00F52
:1007EE00F11F01911191FA0101931193272F30E01E
:1007FE00220F331F0FE513E0F901E00FF11F0881FF
:10080E000193B0E0B1930BE413E0262F30E0200FFC
:10081E00311FF901008108830BE413E0E72FF0E0AC
:10082E00E00FF11F0081F90100830BE413E0E72FC5
:10083E00F0E0E00FF11F0881008305E513E0262F9D
:10084E0030E0200F311FF9010081088305E513E028
:10085E00E72FF0E0E00FF11F0081F901008305E5BD
:10086E0013E0E72FF0E0E00FF11F08810083062F61
:10087E000F5F602F84CF072F0F5F702F7ACFCDBF02
:08088E00DEBFDF91CF91089558
:1008960029E008E2021760F005EC12E0E22FF0E032
:1008A600E00FF11FB0E0B083022F0F5F202FF1CFD2
:1008B600BEE7B093C602B0E0B093C702B1E0B09312
:1008C600C902BDE4B093CA02032D10E00093CB0227
:1008D6002092CC02B0E0B093CD0240E04E31D8F485
:1008E600E42FF0E0E40DF51D0081033209F413C096
:1008F600242F30E0275F3F4F05EC12E0200F311F19
:10090600E42FF0E0E40DF51D0081F9010083042FCA
:100916000F5F402FE3CF042F0B5F402F0093C802D9
:1009260060E070E054E0242F30E02C5F3F4F052F4D
:1009360010E0021713077CF405EC12E0E52FF0E057
:10094600E00FF11F008110E0060F171FB801052FF9
:100956000F5F502FE8CF6093C402242F30E02C5F46
:100966003F4F05EC12E0F901E00FF11F0FEF061BF8
:10097600008321E0342F032F10E00C5F1F4F021776
:10098600B0E01B078CF005EC12E0E22FF0E0E00F80
:10099600F11F00813F922F92202E6DDB2F903F900A
:1009A600022F0F5F202FE7CFB0E0B093ED02B09398
:1009B600EE02B093EF02B093F002B091C302BB7F98
:1009C600B093C3020091ED021091EE022091EF0266
:1009D6003091F002303029F4203019F4133C09F438
:1009E6000035C8F4B091C302B2FD15C00091ED0206
:1009F6001091EE022091EF023091F0020F5F1F4F2F
:100A06002F4F3F4F0093ED021093EE022093EF021B
:100A16003093F002D7CF0091ED021091EE022091B3
:100A2600EF023091F002303029F4203019F4133CF3
:100A360009F4003538F0009142030F5F009342033A
:100A460000E005C00090C302002702FC039508954C
:000A5600A0
:10048000CF93DF93CDB7DEB72297CDBFDEBF2196E6
:1004900010E01F3050F4E12FF0E0E20DF31DB0E06A
:1004A000B083012F0F5F102FF4CF20E000914403A1
:1004B00010914503012F10E0F1010083022F0F5F1F
:1004C000102FE02FF0E0E20DF31D009144030083B4
:1004D000012F0F5F102FE02FF0E0E20DF31DBFEFB3
:1004E000B083012F0F5F102FE02FF0E0E20DF31D1E
:1004F000BFEFB083012F0F5F102FE02FF0E0E20D70
:10050000F31DB1E0B083012F0F5F102FE02FF0E05B
:10051000E20DF31DB0E0B083012F0F5F102FE02F2D
:10052000F0E0E20DF31DBAE2B083012F0F5F102F50
:10053000E02FF0E0E20DF31DBAE2B083012F0F5F70
:10054000102FE02FF0E0E20DF31DB2E4B083012F95
:100550000F5F402F3F922F92B6E02B2E19DE2F9087
:100560003F909801123009F40E3E18F42EEE32E05E
:1005700000C008EE13E00217130718F428EE33E06A
:1005800000C089010E5E12404F9344E650E025DE24
:100590004AEF50E0E9DD8C014F91502F612F23E6A7
:1005A00030E02017310718F453E660E000C0042F54
:1005B00010E0020D131D088319836F935F934F930F
:1005C000052F162F4AE050E0CFDD8C014F915F914F
:1005D0006F91202F205D08811981F8012083042F5D
:1005E0000F5F302F10E0020D131D08831983052FB4
:1005F000162F4AE050E0B8DD8D01202F205D0881E4
:100600001981F8012083032F0F5F102FE02FF0E0F6
:10061000E20DF31DBAE2B083012F0F5F102FE02F20
:10062000F0E0E20DF31DBAE2B083012F0F5FE02F7F
:10063000F0E0E20DF31DB3E2B0832196CDBFDEBF43
:06064000DF91CF91089547
:10019000022D006C00937C0018E605EE0A95F1F73D
:1001A0001A95E1F7B0917A00B064B0937A000091AB
:1001B0007A000071003009F4FACF00917A000061F2
:1001C00000937A0020917800309179000FEF309FF2
:0A01D0008001020FB0E01B1F08952C
:1001DA009801249F8001259F100D349F100D0895CA
:0001EA0015
:100F3E00CF93DF93CDB7DEB72297CDBFDEBF21961D
:100F4E00B0E0B8830881043158F40881E02FF0E056
:100F5E00E20DF31DB0E0B08308810F5F0883F2CF7E
:100F6E00B0E0B883188100919F031017A0F4088198
:100F7E00302F40E0320D431D16E723E00881E02FAD
:100F8E00F0E0E10FF21F0081E32FF42F00830881C0
:100F9E000F5F0883E7CFF10134960081003009F02E
:100FAE004DC0F1013496B1E0B0830881E02FF0E03E
:100FBE00E20DF31D00914303008308810F5F088348
:100FCE00B0E0B9830981033030F5198100E00117D3
:100FDE0058F416E423E00981E02FF0E0E10FF21F50
:100FEE000081003009F417C00881302F40E0320D27
:100FFE00431D16E423E00981E02FF0E0E10FF21F1C
:10100E000081E32FF42F008308810F5F088309818D
:10101E000F5F0983D7CF0881E02FF0E0E20DF31DBB
:10102E00BAE2B08308810F5F0883E02FF0E0E20D93
:10103E00F31DBAE2B08308810F5F08830881E02FA9
:10104E00F0E0E20DF31DB3E2B0832196CDBFDEBF1B
:06105E00DF91CF9108951F
:10106400CF93DF93CDB7DEB72297CDBFDEBF2196F6
:10107400B0E0B8830881043158F40881E02FF0E02F
:10108400E20DF31DB0E0B08308810F5F0883F2CF57
:10109400B0E0B8830091440310914503012F10E0A0
:1010A400F101008308810F5F0883E02FF0E0E20D77
:1010B400F31D00914403008308810F5F0883E02F30
:1010C400F0E0E20DF31DB0E0B08308810F5F088308
:1010D400E02FF0E0E20DF31DB0E0B08308810F5F74
:1010E4000883E02FF0E0E20DF31DB1E0B083088146
:1010F4000F5F0883E02FF0E0E20DF31DB0E0B08352
:1011040008810F5F0883E02FF0E0E20DF31DBAE2DF
:10111400B08308810F5F0883E02FF0E0E20DF31D38
:10112400BAE2B08308810F5F0883E02FF0E0E20D9C
:10113400F31DB1E4B08308810F5F0883E02FF0E072
:10114400E20DF31D00914303008308810F5F0883C0
:10115400B0E0B9830981033030F5198100E001174B
:1011640058F416E423E00981E02FF0E0E10FF21FC8
:101174000081003009F417C00881302F40E0320D9F
:10118400431D16E423E00981E02FF0E0E10FF21F94
:101194000081E32FF42F008308810F5F0883098106
:1011A4000F5F0983D7CF0881E02FF0E0E20DF31D34
:1011B400BAE2B08308810F5F0883E02FF0E0E20D0C
:1011C400F31DBAE2B08308810F5F0883E02FF0E0DB
:1011D400E20DF31D00917F03008308810F5F0883F4
:1011E400E02FF0E0E20DF31DBAE2B08308810F5F57
:1011F4000883E02FF0E0E20DF31DBAE2B08308812A
:101204000F5FE02FF0E0E20DF31DB3E2B08321960F
:0A121400CDBFDEBFDF91CF9108953A
:100DDE00CF93DF93CDB7DEB72197CDBFDEBF219680
:100DEE0070E07A3008F07AC0072F0F5F602F6A30FC
:100DFE0008F070C00BE413E0E72FF0E0E00FF11FF6
:100E0E0020810BE413E0E62FF0E0E00FF11F0081EC
:100E1E00021708F05BC0262F30E0220F331F0FE5BC
:100E2E0013E0A901400F511FFA0100810883272FFB
:100E3E0030E0220F331F0FE513E0F901E00FF11F31
:100E4E0001911191FA0101931193272F30E0220F96
:100E5E00331F0FE513E0F901E00FF11F0881019335
:100E6E00B0E0B1930BE413E0262F30E0200F311FDA
:100E7E00F901008108830BE413E0E72FF0E0E00FA7
:100E8E00F11F0081F90100830BE413E0E72FF0E07E
:100E9E00E00FF11F0881008305E513E0262F30E0F7
:100EAE00200F311FF9010081088305E513E0E72FBC
:100EBE00F0E0E00FF11F0081F901008305E513E07A
:100ECE00E72FF0E0E00FF11F08810083062F0F5F80
:100EDE00602F8DCF072F0F5F702F83CFCDBFDEBF5B
:060EEE00DF91CF91089591
:100A5600CF93DF93CDB7DEB72297CDBFDEBF21960A
:100A66004AE050E0052D162D7CDB8D0100939E0398
:100A76004AE050E0052D162D74DB8C01502E612EB8
:100A86004AE050E06EDB8D01009373034AE050E0CC
:100A9600052D162D66DB8C01502E612E4AE050E0A6
:100AA60060DB8D0100934A034AE050E0052D162DC8
:100AB60058DB8C0100934903B0E0B8830881043108
:100AC60058F40881E02FF0E0E20DF31DB0E0B083AA
:100AD60008810F5F0883F2CFB0E0B883009144032A
:100AE60010914503012F10E0F101008308810F5F8B
:100AF6000883E02FF0E0E20DF31D0091440300832C
:100B060008810F5F0883E02FF0E0E20DF31DB0E0EF
:100B1600B08308810F5F0883E02FF0E0E20DF31D3C
:100B2600B0E0B08308810F5F0883E02FF0E0E20DAC
:100B3600F31DB0E0B08308810F5F0883E02FF0E07B
:100B4600E20DF31DB0E0B08308810F5F0883E02F4C
:100B5600F0E0E20DF31DBAE2B08308810F5F08836F
:100B6600E02FF0E0E20DF31DBAE2B08308810F5FDB
:100B76000883E02FF0E0E20DF31DB3E5B0830881B2
:100B86000F5F0883E02FF0E0E20DF31D042D005DFA
:100B9600008308810F5F0883E02FF0E0E20DF31D6C
:100BA60000914303008308810F5F0883B0E0B98397
:100BB6000981033030F5198100E0011758F416E475
:100BC60023E00981E02FF0E0E10FF21F0081003001
:100BD60009F417C00881302F40E0320D431D16E49A
:100BE60023E00981E02FF0E0E10FF21F0081E32FFF
:100BF600F42F008308810F5F088309810F5F098343
:100C0600D7CF0881E02FF0E0E20DF31DBAE2B08302
:100C160008810F5FE02FF0E0E20DF31DBAE2B0832A
:100C2600F1013F9600914A03005D0083F101709641
:100C360000917303005D0083F101719600919E039C
:100C4600005D0083F1017296BAE2B083F1017396FA
:100C5600BAE2B083F1017496B3E2B0832196CDBFB8
:080C6600DEBFDF91CF9108957C
:0A0C6E0005900D920197E1F708953B
:10388A00A0E0B1E0E0EDF6E389EB91E00E943706B3
:02389A0008958F
:1035F8000F931F932F933F934F93EF93FF93BF9393
:10360800BFB7BF93CF93DF93CDB7DEB72297CDBFB8
:10361800DEBF2196BFB7BF77BFBFB0E0B093D50379
:10362800B0E0B883B9830091C80007FD0DC00881D8
:103638001981113009F4043F38F4088119810F5FAA
:103648001F4F08831983EFCF08811981113009F4BE
:10365800043FB0F418ED23E00091D503E02FF0E02B
:10366800E10FF21F0091CE0000830091D503102FC7
:103678001F5F1093D50308E2011708F403C001C0C7
:1036880001C0CECF0091D50301500093D5030E940D
:103698003C06B091C800B7FF04C00091CE0000936B
:1036A800D403BFB7B068BFBF2196CDBFDEBFDF91DF
:1036B800CF91BF91BFBFBF91FF91EF914F913F91C4
:0836C8002F911F910F9118953D
:100C7800B8B1B061B8B918E605EE0A95F1F71A955A
:100C8800E1F7B8B1BF7EB8B90091D8030E3709F0C3
:100C9800A1C092C030E023E00091D503021768F0AC
:100CA80008ED13E0E22FF0E0E00FF11F0081030FE1
:100CB800302F022F0F5F202FEFCF3F3F09F08AC060
:100CC8000091E803023469F5B091C302B4FD28C06D
:100CD800B091C302B061B093C3020091DC03302F1E
:100CE80022270091DD0310E0020F131F0093F20288
:100CF8001093F3020091DE030093F1021091E903CF
:100D080010531093E9030091EA0300530093EA0398
:100D18000AE0109F102D0091EA03010F0093F402DE
:100D280028C0B091C302B0FD24C0B091C302B16025
:100D3800B093C30248E00091D5034017A8F4242FCC
:100D480030E02850304006E713E0200F311F08ED4F
:100D580013E0E42FF0E0E00FF11F0081F9010083B8
:100D6800042F0F5F402FE7CF0091D5030850009361
:100D78009F0330C00091DD03003029F4B091C30215
:100D8800B460B093C30226C00091DC030D3449F46B
:100D98000091DF03003029F4B091C302B062B09330
:100DA800C3020091DC03023529F4B091C302B0629A
:100DB800B093C3020FC00EC00091DB03013809F4E1
:100DC80069CF0091DB030938A9F20091DB030838E9
:060DD800D9F2F1CF0895ED
:101D52000F921F920F931F932F933F934F935F9373
:101D6200EF93FF93BF93BFB7BF93CF93DF93CDB7EB
:101D7200DEB72297CDBFDEBF2196BFB7BF77BFBF09
:101D8200B0E0B093D703B0E0B883B9830091C0004C
:101D920007FD0DC008811981113009F4043F38F4A0
:101DA200088119810F5F1F4F08831983EFCF0881C4
:101DB2001981113009F4043FB0F410EA23E00091D4
:101DC200D703E02FF0E0E10FF21F0091C60000837D
:101DD2000091D703102F1F5F1093D7030EE1011755
:101DE20008F403C001C001C0CECFDCDEB091C00058
:101DF200B7FF04C00091C6000093D603BFB7B06816
:101E0200BFBF2196CDBFDEBFDF91CF91BF91BFBFD4
:101E1200BF91FF91EF915F914F913F912F911F9150
:081E22000F911F900F9018951D
:101BA600B8B1B062B8B918E605EE0A95F1F71A951C
:101BB600E1F7B8B1BF7DB8B90091A803033209F5C2
:101BC600B091C302B260B093C3020091A20310E0C9
:101BD600005310404AE050E00E94ED002091A3031C
:101BE60030E020533040020F131F00934003109340
:101BF60041030091A503009375030091A703009389
:041C060074030895C6
:1036D0002020202057454B2044454D4F20202020BE
:0136E00000E9
:1036E10020202057454C434F4D4520544F2020204A
:0136F10000D8
:1036F200205A494742454520524F5554494E47208A
:0137020000C6
:1037030020205741495420504C4541534520202007
:0137130000B5
:053714002A2A504500C7
:103719002020202052454345495645442E2E20203D
:01372900009F
:0E372A002020202020202020202020202000F1
:063738004154434E0D0058
:06373E00415457520D003A
:083744004154415020310D00F9
:04374C002B2B2B00F8
:1037500020202020202053454E542E2E2020202093
:013760000068
:103761002020202053454E44494E472E2E20202014
:013771000057
:103772002020205345542041444452455353202095
:013782000046
:1037830020202020204641494C45442E2E20202035
:013793000035
:1037940020202020204641494C45442E2E20202024
:0137A4000024
:1037A50020202020202053454E542E2E202020203E
:0137B5000013
:1037B6002020202053454E44494E472E2E202020BF
:0137C6000002
:1037C700202020205752495445204F4B20202020AD
:0137D70000F1
:1037D8002020202052454345495645442E2E20207E
:0137E80000E0
:1037E90020202020202053454E542E2E20202020FA
:0137F90000CF
:1037FA002020202053454E44494E472E2E2020207B
:01380A0000BD
:04380B002A2A0D0058
:03380F002A2A0062
:1038120020202020202053454E542E2E20202020D0
:0138220000A5
:1038230020202020204641494C45442E2E20202094
:013833000094
:1038340020202020204641494C45442E2E20202083
:013844000083
:103845002020202053454E44494E472E2E2020202F
:013855000072
:1038560020202020202053454E542E2E202020208C
:013866000061
:103867002020202052454345495645442E2E2020EE
:013877000050
:1038780020202020204641494C45442E2E2020203F
:01388800003F
:00000001FF
